:020000040800F2
:100000009806002089010008D1070008C7060008EB
:10001000CB060008A1050008F50D0008000000004F
:10002000000000000000000000000000A50C000817
:10003000A5050008000000000D0B0008910D000848
:10004000A3010008A3010008A3010008A301000800
:10005000A3010008A3010008A3010008A3010008F0
:10006000A3010008A3010008A3010008A3010008E0
:10007000A3010008A3010008A3010008A3010008D0
:10008000A3010008A3010008A3010008A3010008C0
:10009000A3010008A3010008A3010008A3010008B0
:1000A000A3010008A3010008A3010008A3010008A0
:1000B000A3010008A3010008A3010008A301000890
:1000C000A3010008A3010008A3010008A301000880
:1000D000A3010008A3010008A3010008A301000870
:1000E000A3010008A3010008A301000800F002F822
:1000F00000F03AF80AA090E8000C82448344AAF188
:100100000107DA4501D100F02FF8AFF2090EBAE885
:100110000F0013F0010F18BFFB1A43F0010318473B
:100120001419000034190000103A24BF78C878C1AF
:10013000FAD8520724BF30C830C144BF04680C60ED
:10014000704700000023002400250026103A28BF35
:1001500078C1FBD8520728BF30C148BF0B60704739
:100160001FB51FBD10B510BD00F0C3F91146FFF754
:10017000F7FF00F041FE00F0E1F903B4FFF7F2FFF2
:1001800003BC00F0E9F9000009488047094800472E
:10019000FEE7FEE7FEE7FEE7FEE7FEE7FEE7FEE737
:1001A000FEE7FEE704480549054A064B7047000094
:1001B000950D0008ED00000898000020980600202A
:1001C000980200209802002010B5203AC0F00B8061
:1001D000B1E81850203AA0E81850B1E81850A0E84B
:1001E0001850BFF4F5AF5FEA027C24BFB1E81850A5
:1001F000A0E8185044BF18C918C0BDE810405FEA15
:10020000827C24BF51F8043B40F8043B08BF704790
:10021000D20728BF31F8023B48BF11F8012B28BF95
:1002200020F8023B48BF00F8012B7047014900F05D
:10023000DDB800000C00002010B503681C1404EBAE
:1002400021449BB289B2194494FBF2F302FB13439D
:1002500094FBF2F401EB034393FBF2F102FB113147
:1002600093FBF2F301E05B1E11440029FBDB01600C
:1002700003EB044010BDF0B504464FF0FF3585B0E8
:100280000068049060680290A0680390E0680190A4
:1002900020690090666906F18040B0F1004F7CD87B
:1002A0003C22002104A8FFF7C7FF3C22014602A818
:1002B000FFF7C2FF1822014603A8FFF7BDFF411E4A
:1002C00040F2B55201A8FFF7B7FF0C220746684677
:1002D0000021FFF7B1FF414B00EB870030440026BF
:1002E0007B4411E0511A01910099491C02290091A7
:1002F00002D00C2908D105E0810705D00199491CDD
:10030000019101E0401C00960099019A595C9142CC
:10031000E8DD0099012906D11C2A04D1810702D009
:100320000221CDE90016A0F146018B293CD2DDE97E
:100330000061002202E09F5C521C3944B242FADBA9
:10034000012E02DD820700D0491E40F2B55340F273
:100350006D16C21700EB927292105A4300F003031D
:1003600003FB062283070A4400D1521E039E02EBC0
:100370004203049F06EBC303029EC3EB031306EB89
:100380008303174E33441E149BB2C6EB0616C3EB11
:100390000313B60007EB830300E005E006EB13460A
:1003A00066F31F43360C02D0284605B0F0BD80C46A
:1003B000029E40C4039E40C4019E761C44F80C6B10
:1003C000009E44E902600720521C92FBF0F600FBFD
:1003D000162084E823001846E7E7000044170000D1
:1003E000A039CEFD704770477047000070B50C46CD
:1003F000016800204A1C3ED03C22B1FBF2F302FB14
:100400001313B1FBF2F12360B1FBF2F302FB131300
:10041000B1FBF2F118226360B1FBF2F302FB13139C
:10042000B1FBF2F146F2E0320A440721A360B2FBCD
:10043000F1F301FB132140F2B553B2FBF3F5A161D7
:10044000B2FBF3F103FB15228900B2F5B77F08D3A5
:100450009B10521EB2FBF3F52944B2FBF3F503FBEC
:1004600015220F4BE261616189077B440CD03B2A66
:100470000AD3521C08E02C21204600F013F801207A
:10048000E0600AE0521A401C195C9142FAD9521CF1
:10049000C4E903204FF0FF302062204670BD000009
:1004A000BA1500004FF0000200B513469446964678
:1004B000203922BFA0E80C50A0E80C50B1F1200177
:1004C000BFF4F7AF090728BFA0E80C5048BF0CC025
:1004D0005DF804EB890028BF40F8042B08BF704783
:1004E00048BF20F8022B11F0804F18BF00F8012BF5
:1004F0007047754600F02CF8AE4605006946534635
:1005000020F00700854618B020B5FFF74BFEBDE888
:1005100020404FF000064FF000074FF000084FF06A
:10052000000B21F00701AC46ACE8C009ACE8C009FB
:10053000ACE8C009ACE8C0098D46704710B5044668
:10054000AFF300802046BDE81040FFF716BE000064
:10055000004870473800002001491820ABBEFEE774
:10056000260002007047000008B5014600200090F8
:10057000034800900098084400900098008808BD47
:10058000006C004008B500220092044A0092009AD4
:1005900002440092009A116008BD0000006C004007
:1005A00000BFFEE770472DE9F04102460025002616
:1005B000002000230024002791F803C00CF00F0551
:1005C00091F803C00CF0100CBCF1000F03D091F8AF
:1005D00002C04CEA050591F800C0BCF1000F31D013
:1005E000146800202BE04FF0010C0CFA00F3B1F876
:1005F00000C00CEA03069E4220D183004FF00F0C8E
:100600000CFA03F7BC4305FA03FC4CEA040491F826
:1006100003C0BCF1280F06D14FF0010C0CFA00FC0E
:10062000C2F814C00AE091F803C0BCF1480F05D12C
:100630004FF0010C0CFA00FCC2F810C0401C082856
:10064000D1D31460B1F800C0BCF1FF0F34DD5468A1
:1006500000202EE000F1080C4FF0010808FA0CF31E
:10066000B1F800C00CEA03069E4221D183004FF08E
:100670000F0C0CFA03F7BC4305FA03FC4CEA040424
:1006800091F803C0BCF1280F05D100F1080C08FA5D
:100690000CF8C2F8148091F803C0BCF1480F07D1E0
:1006A00000F1080C4FF0010808FA0CF8C2F81080AD
:1006B000401C0828CED35460BDE8F0810AB1016126
:1006C00000E04161704700BFFEE700BFFEE710B5E4
:1006D0000121C80600F01CFA0121080700F018FAF1
:1006E000012000F00DFA0420FFF73EFF4AF2A55169
:1006F000884220D0012000F049FA00BF412000F0DC
:1007000027FA0128FAD1000200F060FA012000F077
:1007100057FA00F0B5FA00F0A9FA47F6FF7000F0BA
:1007200095FA00F0A3FA00F02FF84AF2A551042040
:10073000FFF728FF03E000F0A3FA00F097FA10BDDE
:1007400010B58CB000F05EFA00F5E1400B900BA8FC
:10075000FFF76CFD04462C2221466846FFF734FD66
:10076000059800F26C70074908800498401C488086
:10077000039888800298C880019808810098488171
:100780000CB010BD0000002010B58CB00F480088E0
:10079000A0F26C7006900D484088401E05900B48F2
:1007A000808804900948C088039008480089029016
:1007B00006484089019001A8FFF75DFDA0F5E144DE
:1007C000204600F035FA0CB010BD000000000020FB
:1007D000704770B500240EE00021204600F0EFF8CD
:1007E000002504E0002000F07BF9681CC5B2802DD4
:1007F000F8DB601CC4B2082CEEDB70BD08B501212B
:10080000082000F095F914208DF8030003208DF8DE
:1008100002004FF48070ADF8000069460A48FFF707
:10082000C2FE4FF40070ADF8000069460648FFF7BD
:10083000BAFE012211020448FFF740FF01225102D3
:100840000148FFF73BFF08BD000C014070B50546AD
:10085000002415E08020204100EA05024FF40071D9
:100860000E48FFF72BFF012211020C48FFF726FF6D
:1008700000224FF480710948FFF720FF601CC4B2CA
:10088000082CE7DB012211020448FFF717FF0022C2
:100890004FF480710148FFF711FF70BD000C01405B
:1008A00010B5012251020A48FFF708FF0122110288
:1008B0000748FFF703FF00224FF400710448FFF7D9
:1008C000FDFE00224FF480710148FFF7F7FE10BDD6
:1008D000000C014010B500224FF400710648FFF7EC
:1008E000EDFE012211020448FFF7E8FE0122510249
:1008F0000148FFF7E3FE10BD000C014070B5002475
:1009000006E0002500E06D1CB5F57A7FFBD3641C82
:10091000B4F57A7FF5D3FFF771FFAE2000F0D0F881
:10092000D52000F0CDF8802000F0CAF8A82000F013
:10093000C7F83F2000F0C4F8D32000F0C1F8002031
:1009400000F0BEF8402000F0BBF8A12000F0B8F89D
:10095000C82000F0B5F8DA2000F0B2F8122000F05C
:10096000AFF8812000F0ACF8CF2000F0A9F8D92032
:1009700000F0A6F8F12000F0A3F8DB2000F0A0F8CA
:10098000302000F09DF8A42000F09AF8A62000F096
:1009900097F88D2000F094F8142000F091F8AF2023
:1009A00000F08EF8FFF715FF70BD10B5024601206C
:1009B00000E050430B1EA1F10101FAD110BD70B54A
:1009C00005460C4645F0B00000F07AF8102141EAE7
:1009D000141000F075F804F00F0000F071F870BD0D
:1009E0002DE9F04105460E461746721ED206110E3D
:1009F0006A1E5206100EFFF7E2FF002409E0A7F17D
:100A00002001134A02EB0111085D00F069F8601C37
:100A1000C4B2082CF3DB721ED206110E6A1E01232B
:100A200003EB4202D0B2FFF7CAFF00240BE0A7F1AC
:100A30002001074A02EB011204F10801505C00F0AA
:100A40004FF8601CC4B2082CF1DBBDE8F081000057
:100A5000381400082DE9F04780460E4617461D461B
:100A6000002415E0281B411E0A20FFF79EFFB7FB5C
:100A7000F0F00A21B0FBF1F201FB120000F13009A5
:100A80003019C1B24A464046FFF7AAFF601CC4B203
:100A9000AC42E7DBBDE8F0872DE9F04107460E46A2
:100AA0001546002407E02A5D3019C1B23846FFF729
:100AB00097FF601CC4B2285D0028F4D1BDE8F08126
:100AC00010B50446FFF7ECFE7820FFF7BFFE0020CC
:100AD000FFF7BCFE2046FFF7B9FEFFF7FBFE10BD97
:100AE00010B50446FFF7DCFE7820FFF7AFFE40208C
:100AF000FFF7ACFE2046FFF7A9FEFFF7EBFE10BDA7
:100B0000014908627047000000000E427047000073
:100B100029B1064AD2690243044BDA6104E0034A70
:100B2000D2698243014BDA61704700000010024035
:100B300029B1064A92690243044B9A6104E0034AD0
:100B400092698243014B9A61704700000010024095
:100B500010B501460022002300204A11012A02D1CB
:100B6000094C236806E0022A02D1074C236A01E0FF
:100B7000054C636A01F01F02012494401C400CB133
:100B8000012000E0002010BD0010024000210B4AAF
:100B900011700A4A203A82F82010012802D0042855
:100BA00008D103E00121054A117004E00521034A40
:100BB000117000E000BF00BF70470000201002402D
:100BC00001490860704700003C0442420249096A3A
:100BD0000143014A11627047001002400348008837
:100BE00040F01000014908807047000004280040D0
:100BF000034800884FF6EF710840014908807047AC
:100C000004280040002103480188001F008841EAB1
:100C1000004070471C28004000200449098809074B
:100C2000080B0249091D0988084370471028004035
:100C300000B50246FFF7D2FF100C03490880091DDA
:100C40000A80FFF7D5FF00BD1828004000B5024616
:100C5000FFF7C4FFC2F3034003490880091D0A805F
:100C6000FFF7C6FF00BD00000828004000BF034892
:100C7000008800F020000028F9D0704704280040C8
:100C8000074800884FF6F77108400549088000BF03
:100C90000348008800F008000028F9D070470000E1
:100CA00004280040704710B500F002F810BD0000A5
:100CB0000CB50020019000903348006840F480306B
:100CC0003149086000BF3048006800F400300090EF
:100CD0000198401C0190009818B90198B0F5A06FD8
:100CE000F1D12948006800F4003010B101200090D3
:100CF00001E0002000900098012843D123480068BB
:100D000040F01000214908600846006820F0030008
:100D100008600846006840F0020008601A48406811
:100D2000194948600846406848600846406840F4F1
:100D3000806048600846406820F47C10486008469F
:100D4000406840F4E81048600846006840F0807051
:100D5000086000BF0C48006800F000700028F9D05F
:100D60000948406820F00300074948600846406889
:100D700040F00200486000BF0348406800F00C00EB
:100D80000828F9D10CBD00000010024000200240EC
:100D90007047000010B51348006840F00100114989
:100DA000086008464068104908400E4948600846F7
:100DB00000680E4908400B4908600846006820F4A6
:100DC000802008600846406820F4FE0048604FF428
:100DD0001F008860FFF767FF4FF00060044908605C
:100DE00010BD0000001002400000FFF8FFFFF6FEFB
:100DF00008ED00E000BFFEE7FFF780FDFFF767FCAE
:100E000033A201210846FFF747FE35A20121022047
:100E1000FFF742FE36A201210320FFF73DFE36A276
:100E200001210420FFF738FE51E0FFF789FC344828
:100E30000288042306210120FFF70CFE3048428877
:100E400002230B210120FFF705FE2D488288022393
:100E50000E210120FFF7FEFD2948C288022306214A
:100E60001846FFF7F7FD2648028902230921184694
:100E7000FFF7F0FD2248428902230C211846FFF7B4
:100E8000E9FDFFF7BFFE04460A23224606210320A0
:100E9000FFF7E0FDFFF7C0FE47F6FF71A1EB000B87
:100EA000584600F0B8F980460022164B00F02EF8A4
:100EB00006460022144B00F0C1F9044600F07EF90A
:100EC00082460A23524606210420FFF7C3FDACE701
:100ED000446174613A585858582D78782D787800C4
:100EE00054494D453A58583A58583A585800000015
:100EF000434E543A000000004449563A00000000B6
:100F000000000020C0FFDF4000388F402DE9C041C5
:100F100030B4DFF8A0C23CEA111418BF3CEA131445
:100F200000F0EC8081EA03051CEA111444EAD57450
:100F300018BF1CEA131500F0C780A4EB05044FF09E
:100F4000004545EAC12145EAC32341EA505143EA3D
:100F5000525304F17F74994204F500344FEAC020E3
:100F60004FEAC22208BF904200F09C804FEA13650E
:100F70000FF24016765D4FEA134506FB05F7C7F101
:100F8000807706FB07F74FEAD737A7FB036876425F
:100F9000C8F58038A7FB06CE38BFA8F1010807FBCB
:100FA00008E64FF0000EA6FB028CE6FB03CEDCF158
:100FB000000CCEF1004E38BFAEF1010EA6FB0C586E
:100FC0004FF000074FF00005E6FB0E87A1FB08C6B7
:100FD000A0FB07CE16EB0E0645F10005E1FB076509
:100FE00015F1E04E7EBFA4F580345FEA46066D4100
:100FF00016F1800745F100054FEA17274FEA06660C
:1010000047EA0567A6F1DE46B6F1805F4FEA15258F
:101010001FD9384624F0010C05EBC471BCF1FE6FFA
:1010200001EB0C1102D8F0BCBDE8008124425CBF8A
:1010300001F5801E9EEAC47F02D4F0BCBDE80081A9
:10104000244238D4F0BCA1F1C041BDE8004100F019
:10105000EDB94FEAD22242EA43524FEAD323A7FB2B
:1010600002864FEAD02040EA415007FB03661EEAA1
:101070000E0F4FEAD12105FB026658BFA6EB0056C2
:10108000B6EB00564FEA520E4EEAC37E18EB0E0E38
:1010900056EB530EBDD518EB02085E417F1C55F18F
:1010A0000005B6E74FF480154FF000074FF000063B
:1010B0004FF00008ADE7F0BC4FF0000001F1C04177
:1010C00001F00041BDE8008111EA0C1F0CEA131584
:1010D00000D00CE013EA0C1F00F025804FF0000058
:1010E000F0BC81EA030101F00041BDE80081F0BCE1
:1010F000BDE8004181EA030100F098B9F0BCBDE809
:10110000004170B500F044F9097EFC3E00F007B8DC
:1011100081EA03014FF0000001F00041704781EACD
:10112000030100F083B9F0BCBDE800414FF00000BE
:1011300021497047FFFDFBF9F7F5F4F2F0EEEDEB16
:10114000E9E8E6E4E3E1E0DEDDDBDAD8D7D5D4D3C5
:10115000D1D0CFCDCCCBCAC8C7C6C5C4C2C1C0BF11
:10116000BEBDBCBBBAB9B8B7B6B5B4B3B2B1B0AF17
:10117000AEADACABAAA9A8A8A7A6A5A4A3A3A2A1FB
:10118000A09F9F9E9D9C9C9B9A99999897979695B6
:1011900095949393929191908F8F8E8E8D8C8C8B52
:1011A0008B8A8989888887878685858484838382DA
:1011B000828181800000FF070000F87F4FEA115311
:1011C000A3F58063D3F11E03A8BFD3F1200C08DB85
:1011D0004FF0004242EAC12252EA505232FA03F082
:1011E000704709420BD4102BC4BF0020704703F591
:1011F000787CBCF1FF3F05D04FF0FF3070474FF0D7
:101200000000704770B500F0C3F800BF4992248019
:1012100000207047F0E7B0FA80F310FA03F10AD02B
:10122000C3F11D0303F580634FEA41504FEA0352B7
:1012300002EBD12170474FF000007047DFF848C142
:1012400070B51CEA111E1EBF1CEA13159EEA0C0F96
:1012500095EA0C0F00F06F8081EA030423EA4C1337
:101260004EEAD47E21EA4C1141F4801143F48013FC
:10127000AE44A1FB024CA0FB0365AEF17F7E3619A4
:1012800055EB0C05A1FB034C4CF10003A0FB021C29
:1012900016EB0C06654153F10003094218BF46F0F6
:1012A000010613F4007F0BD14FEA03314FEA0530FA
:1012B000340341EA155140EA16506FF003020AE088
:1012C0004FEAC3214FEAC520F40241EA555140EAF2
:1012D00056506FF0020202EB2E4201EB025585EAF6
:1012E000CE710AD05FEA440C18BF24F0004450F1DC
:1012F000000041F1000120EAD47040F2FE7C62451A
:1013000000D270BDA84214BF4FF080444FF040445B
:10131000002E08BF0024BEF1806FA8BFA1F1C0411C
:10132000BDE8704080F282804FF0000001F1C041C2
:1013300001F0004170479EEA0C0F0CEA131518BF2C
:1013400095EA0C0F06D04FF0000081EA030E0EF074
:10135000004170BD00F01CF88900013E00F007B8A4
:1013600000F009B84FEA430C5FEA5C5C08D081EA00
:10137000030100F05BB84FEA410C5FEA5C5CF6D118
:101380004FF00000014970470000FF070000F87FA0
:101390000EF1020E2EF0030E5EF8046B364205D4F9
:1013A000012A43EB030515F5001F12D8012841EB74
:1013B000010C1CF5001F0CD80ED14FEAD17C15F59D
:1013C000001F0CEB4C0C0CF1020C08BF4CEBD37C57
:1013D00004E04FF0080C01E04FEAD37C0CEB4C0525
:1013E00026FA05F606F00706B6F1040C06D20EEB57
:1013F000860CBDE870404CF0010C6047DFE80CF053
:10140000090B02024FF000414FF00000A1F500214E
:1014100070BD19461046012851EB010418BFD4F5E0
:10142000001484BF002001F0004170BD0808A0F541
:1014300000114FEA31017047000000000000000079
:101440000000000000000000000000F800000000A4
:10145000000000333000000000100C06100C0600E5
:10146000000000000000000040C07840C07840004C
:10147000043F04043F040400007088FC08300000AE
:10148000001820FF211E0000F008F000E018000006
:1014900000211C031E211E0000F0088870000000BF
:1014A0001E2123241927211010160E000000000011
:1014B0000000000000000000000000E0180402002E
:1014C000000000071820400000020418E00000009F
:1014D0000040201807000000404080F0804040009D
:1014E0000202010F01020200000000F000000000F3
:1014F0000101011F010101000000000000000000C7
:1015000080B070000000000000000000000000003B
:1015100000010101010101010000000000000000C4
:10152000003030000000000000000000806018045F
:10153000006018060100000000E010080810E0003C
:10154000000F102020100F00001010F80000000005
:101550000020203F2020000000700808088870004C
:1015600000302824222130000030088888483000CC
:101570000018202020110E000000C02010F80000EC
:1015800000070424243F240000F808888808080085
:101590000019212020110E0000E01088881800009A
:1015A000000F112020110E0000380808C83808006C
:1015B0000000003F000000000070880808887000EC
:1015C000001C222121221C0000E010080810E0006D
:1015D0000000312222110F00000000C0C0000000F6
:1015E000000000303000000000000080000000001B
:1015F0000000806000000000000080402010080013
:1016000000010204081020004040404040404000DB
:1016100004040404040404000008102040800000B6
:101620000020100804020100007048080808F000BB
:101630000000003036010000C030C828E810E0008B
:101640000718272423140B000000C038E000000016
:10165000203C23020227382008F888888870000080
:10166000203F202020110E00C03008080808380054
:10167000071820202010080008F808080810E000CB
:10168000203F202020100F0008F88888E80810006C
:10169000203F20202320180008F88888E808100040
:1016A000203F200003000000C03008080838000078
:1016B00007182020221E020008F808000008F80879
:1016C000203F210101213F20000808F80808000000
:1016D0000020203F2020000000000808F808080033
:1016E000C08080807F00000008F888C028180800AB
:1016F000203F20012638200008F8080000000000E4
:10170000203F20202020300008F8F800F8F80800DA
:10171000203F003F003F200008F830C00008F808D4
:10172000203F200007183F00E01008080810E000E4
:101730000F10202020100F0008F808080808F000FB
:10174000203F210101010000E01008080810E0001E
:101750000F18242438504F0008F8888888887000B3
:10176000203F2000030C3020007088080808380053
:101770000038202121221C00180808F80808180049
:101780000000203F2000000008F808000008F808CA
:10179000001F202020201F000878880000C838087B
:1017A000000007380E010000F80800F80008F800F3
:1017B000033C0700073C030008186880806818088D
:1017C00020302C03032C30200838C800C83808000B
:1017D0000000203F2000000010080808C83808005A
:1017E0002038262120201800000000FE02020200FE
:1017F0000000007F40404000000C30C000000000AE
:10180000000000010638C00000020202FE000000D5
:10181000004040407F00000000000402020204007B
:1018200000000000000000000000000000000000B8
:1018300080808080808080800002020400000000A0
:101840000000000000000000000080808080000098
:101850000019242222223F2008F800808000000086
:10186000003F112020110E00000000808080000049
:10187000000E112020201100000000808088F80058
:10188000000E112020103F2000008080808000008A
:10189000001F222222221300008080F088888818EE
:1018A0000020203F202000000000808080808000F9
:1018B000006B94949493600008F80080808000008E
:1018C000203F210000203F20008098980000000069
:1018D0000020203F20200000000000809898000099
:1018E00000C08080807F000008F8000080808000B9
:1018F000203F24022D302000000808F800000000DE
:101900000020203F20200000808080808080800098
:10191000203F20003F20003F80800080808000002A
:10192000203F210000203F200000808080800000B8
:10193000001F202020201F008080008080000000E9
:1019400080FFA12020110E00000000808080800018
:10195000000E112020A0FF80808080008080800009
:1019600020203F2120000100000080808080800036
:101970000033242424241900008080E080800000AB
:101980000000001F202000008080000000808000F8
:10199000001F202020103F20808080000080808059
:1019A00000010E30080601008080008000808080E9
:1019B0000F300C030C300F0000808000808080000E
:1019C0000020312E0E312000808080000080808039
:1019D00080818E70180601000080808080808000E9
:1019E0000021302C2221300000000000807C020207
:1019F00000000000003F404000000000FF00000029
:101A000000000000FF0000000002027C80000000D7
:101A10000040403F000000000006010102020404F3
:101A200000000000000000001F1D1F1E1F1E1F1FC2
:101A30001E1F1E1F541A0008000000200C0000008A
:101A400028010008601A00080C0000208C06000025
:101A500044010008E907070014000B0009003700E3
:04000005080000ED02
:00000001FF
